:100000000C9434000C9451000C9451000C94510049
:100010000C9451000C9451000C9451000C9451001C
:100020000C9451000C9451000C9451000C9451000C
:100030000C9451000C9451000C9451000C945100FC
:100040000C9451000C9451000C9491050C945100A7
:100050000C9451000C9451000C9451000C945100DC
:100060000C9451000C94510011241FBECFEFD8E026
:10007000DEBFCDBF11E0A0E0B1E0E4EEF0E102C0F0
:1000800005900D92A238B107D9F721E0A2E8B1E0BE
:1000900001C01D92A139B207E1F70E94A6040C9499
:1000A00070080C9400008F929F92AF92BF92EF92D3
:1000B000FF920F931F9349015A018E249F24A0267B
:1000C000B126DC01CB0188219921AA21BB21BC01E9
:1000D000CD016E257F25802791271F910F91FF90DD
:1000E000EF90BF90AF909F908F900895EF92FF9206
:1000F0000F931F93DC01CB0182279327A427B527F9
:10010000BC01CD016E257F25802791271F910F917E
:10011000FF90EF9008958F929F92AF92BF92CF92EF
:10012000DF92EF92FF920F931F9349015A018E289D
:100130009F28A02AB12ADC01CB0188219921AA217C
:10014000BB2159016A01AE20BF20C022D122BC01CF
:10015000CD016A297B298C299D291F910F91FF9040
:10016000EF90DF90CF90BF90AF909F908F900895C9
:10017000EF92FF920F931F93DC01CB01822793270D
:10018000A427B527BC01CD016E257F2580279127A7
:100190001F910F91FF90EF900895E1ECF0E08081C6
:1001A0008068808380818061808380818860808393
:1001B000E2ECF0E080818F73808380818F7C80838C
:1001C0008081866080831092C50087E68093C4009A
:1001D00008959091C00095FFFCCF8093C6000895CC
:1001E000CF93DF93EC0103C00E94E9002196888140
:1001F0008111FACFDF91CF9108958F929F92AF92A4
:10020000BF92CF92DF92EF92FF920F931F936B01F9
:100210007C01022E04C0CC0CDD1CEE1CFF1C0A94D9
:10022000D2F749015A010027112798010819190925
:100230002A093B090F7111272227332704C09695FD
:100240008795779567950A95D2F76C297D298E2930
:100250009F291F910F91FF90EF90DF90CF90BF905B
:10026000AF909F908F9008954F925F926F927F9280
:100270008F929F92AF92BF92CF92DF92EF92FF92B6
:100280000F93CF93DF93FB01C0E0D0E0C12CD12CC2
:10029000760143C0DC01AC0DBD1D4C91442399F1A6
:1002A000DE01AA0FBB1FAA0FBB1FAE0FBF1F842EFC
:1002B000912CA12CB12C63E070E0621B730B660FD4
:1002C000771F660F771F660F771F2401350104C063
:1002D000440C551C661C771C6A95D2F7B301A20129
:1002E0008D909D90AD90BC901397482959296A290B
:1002F0007B294D935D936D937C9313974FEFC41AB5
:10030000D40AE40AF40A2F5F3F4F02C020E030E035
:10031000243031050CF4BECF2196409183015091D9
:1003200084016091850170918601440F551F661FFD
:10033000771F440F551F661F771F440F551F661FF9
:10034000771F440F551F661F771F4E010D2E000C9F
:10035000AA08BB0884169506A606B706B8F2D70108
:10036000C601B695A79597958795B695A795979544
:100370008795DC01AA0FBB1FAA0FBB1FAE0FBF1FC3
:10038000B701A6014095509560957095437055272B
:10039000CA01880F991F880F991F880F991F40E87D
:1003A00050E060E070E004C0440F551F661F771FE7
:1003B0008A95D2F78D909D90AD90BC901397482967
:1003C00059296A297B294D935D936D937C931397EB
:1003D000CC0CDD1CEE1CFF1CCC0CDD1CEE1CFF1C31
:1003E000CC0CDD1CEE1CFF1C26013701C3E8D1E05C
:1003F000A881B9810024B695A7950794B695A795CD
:100400000794BA2FA02D1897AE0FBF1F2C2D352D96
:10041000462D572D60E070E080E090E000E20E9401
:100420000A062C9311963C93119712964C931297AF
:1004300013965C93888199810024969587950794FB
:10044000969587950794982F802D0497E80FF91FAC
:10045000C082D182E282F382DF91CF910F91FF902F
:10046000EF90DF90CF90BF90AF909F908F907F9054
:100470006F905F904F9008952F923F924F925F92AE
:100480006F927F928F929F92AF92BF92CF92DF92A4
:10049000EF92FF920F931F93CF93DF93CDB7DEB709
:1004A0006A970FB6F894DEBF0FBECDBF1B011D8A41
:1004B0001E8A1F8A188E9A8F898F9EC1EEE0F1E006
:1004C00000811181228133810D831E832F83388720
:1004D000248135814681578129873A874B875C87FC
:1004E00080859185A285B38589839A83AB83BC83FC
:1004F00004851585268537850D871E872F87388BC0
:100500002089318942895389298B3A8B4B8B5C8BAB
:10051000412C512C32010BC110E1411651046104F0
:10052000710418F5D201AA0FBB1FAA0FBB1F298D9A
:100530003A8DA20FB31FED89FE89E295F295F07F07
:10054000FE27E07FFE27E40DF51DEE0FFF1FEE0FE7
:10055000FF1FE20DF31D40815181628173814D9334
:100560005D936D937C9313975BC07201EE0CFF1C3F
:10057000EE0CFF1C498D5A8DE40EF51EF201E3507E
:10058000F04CEE0FFF1FEE0FFF1FE40FF51F8081F1
:100590009181A281B381F201E850F04CEE0FFF1F70
:1005A000EE0FFF1FE40FF51F4081518162817381BF
:1005B00084279527A627B727F201EE50F04CEE0FBF
:1005C000FF1FEE0FFF1F098D1A8DE00FF11F4081F5
:1005D00051816281738184279527A627B727F2016D
:1005E000E051F04CEE0FFF1FEE0FFF1FE00FF11F69
:1005F00040815181628173818C019D0104271527FF
:1006000026273727C901B80121E030E040E050E05B
:100610000E94FD00D7016D937D938D939C9313975A
:10062000F201EE0FFF1FEE0FFF1F098D1A8DE00F75
:10063000F11F80809180A280B380C301B20124E1C8
:1006400030E040E050E00E94E60569017A01F901DE
:10065000EE0FFF1FEE0FFF1FEF58FE4F80819181BD
:10066000A281B381880E991EAA1EBB1E25E030E030
:1006700040E050E06D817E818F8198850E94FD0071
:10068000860E971EA81EB91EC601880F991FFC0171
:10069000EA5FFE4F0190F081E02DED84FE840F852E
:1006A000188929813A814B815C8169857A858B859E
:1006B0009C85099575016401C60ED71EE81EF91EBA
:1006C00029893A894B895C89C20ED31EE41EF51E26
:1006D0002EE130E040E050E069857A858B859C858D
:1006E0000E94FD003FEF431A530A630A730A0D8507
:1006F0001E852F853889098B1A8B2B8B3C8B298182
:100700003A814B815C812D873E874F87588B698367
:100710007A838B839C838D819E81AF81B885898705
:100720009A87AB87BC87CD82DE82EF82F88690E520
:10073000491651046104710408F4EECEEEE0F1E0D4
:1007400080819181A281B3810D811E812F813885A5
:10075000800F911FA21FB31F80839183A283B38355
:1007600084819581A681B78129853A854B855C85F1
:10077000820F931FA41FB51F84839583A683B7831D
:1007800080859185A285B38509811A812B813C8161
:10079000800F911FA21FB31F80879187A287B38705
:1007A00084859585A685B7852D853E854F85588995
:1007B000820F931FA41FB51F84879587A687B787CD
:1007C00080899189A289B38909891A892B893C89F1
:1007D000800F911FA21FB31F808B918BA28BB38BB5
:1007E0002D893E894F89588D2F5F3F4F4F4F5F4F67
:1007F0002D8B3E8B4F8B588F80918301909184017C
:10080000A0918501B09186010D891E892F89388DAF
:10081000081719072A073B0708F450CE6A960FB647
:10082000F894DEBF0FBECDBFDF91CF911F910F9126
:10083000FF90EF90DF90CF90BF90AF909F908F9000
:100840007F906F905F904F903F902F900895CF9240
:10085000DF92EF92FF920F931F93CF93DF936C0180
:100860007B0100E010E027C0F801EE0FFF1FEE0F44
:10087000FF1FEC0DFD1D80819181A281B38123E0DA
:1008800030E02C1B3D0B220F331F220F331F220F92
:10089000331F04C0B695A795979587952A95D2F7EB
:1008A0000E94E900219602C0C0E0D0E0C430D1052A
:1008B000DCF20F5F1F4F05301105B4F320E016C0C6
:1008C000822F90E0880F991F880F991FF601E80F7B
:1008D000F91FD701A80FB91F8D919D910D90BC9163
:1008E000A02D80839183A283B3832F5F253040F3B3
:1008F000DF91CF911F910F91FF90EF90DF90CF90FC
:1009000008958130910519F0029731F00AC082E212
:1009100091E00E94F00009C086E391E00E94F0009F
:1009200004C085E491E00E94F00080E591E00E941F
:10093000F000FFCFCF93DF93EC01CB010E94DA06EA
:10094000CE010E94DA06DF91CF9108950E94CD007A
:10095000789481E090E00E94420690938C0180930D
:100960008B018091870190918801A0918901B091BC
:100970008A01883E23E09207A105B10520F082E0BC
:1009800090E00E94810420918B0130918C01EC0158
:100990002297C20FD31F4881433209F07EC0280F2F
:1009A000391FF90131972081213209F076C0209159
:1009B0008201211172C0880F991FAA1FBB1F880FC7
:1009C000991FAA1FBB1FBC01CD01660F771F881F8F
:1009D000991F20EC31E040E050E00E94E605DA018A
:1009E000C9010196A11DB11D8093830190938401DB
:1009F000A0938501B09386011882E0918701F09160
:100A00008801319780918B0190918C01E80FF91F3B
:100A10001082809183019091840164E070E082955E
:100A20009295907F9827807F98270E9426068C01B8
:100A300064E070E080E590E00E942606EC0101157C
:100A4000110511F0009721F481E090E00E948104EB
:100A5000BC0180918B0190918C010E943401BE01F8
:100A6000C8010E943C02BE01C8010E949A04809104
:100A7000870190918801A0918901B0918A01029724
:100A8000A109B1098093870190938801A0938901FE
:100A9000B0938A0181E08093820120918B01309193
:100AA0008C018091870190918801F901E80FF91F6D
:100AB00032974081433209F054CF820F931FFC01DB
:100AC00031978081843209F04CCF8091820181304E
:100AD00009F047CF6DE571E08EE091E00E942704B8
:100AE00010928701109288011092890110928A0158
:100AF00080918B0190918C010E94DA0661E070E098
:100B000081E090E00E94260690938C0180938B01F7
:100B1000892B21F481E090E00E94810410928201EF
:100B200020CF1F920F920FB60F9211242F933F9355
:100B30004F935F936F937F938F939F93AF93BF93E5
:100B4000EF93FF9360918701709188016E5F7F4FF3
:100B500080918B0190918C010E94630790938C018E
:100B600080938B01009721F481E090E00E94810442
:100B70002091870130918801FC01E20FF31F209141
:100B8000C60020838091870190918801A0918901FE
:100B9000B0918A010196A11DB11D809387019093A8
:100BA0008801A0938901B0938A01FF91EF91BF91D1
:100BB000AF919F918F917F916F915F914F913F91F5
:100BC0002F910F900FBE0F901F901895A1E21A2E33
:100BD000AA1BBB1BFD010DC0AA1FBB1FEE1FFF1FE1
:100BE000A217B307E407F50720F0A21BB30BE40B31
:100BF000F50B661F771F881F991F1A9469F7609578
:100C00007095809590959B01AC01BD01CF01089531
:100C100097FB10F8169400080F93083098F00850CE
:100C2000232F342F452F562F672F782F892F902D64
:100C3000F4CF059497958795779567955795479540
:100C4000379527950A95AAF70F9108950F931F934B
:100C5000CF93DF93869F8001879F100D969F100D85
:100C60001124C8010E944206EC01009729F0A80156
:100C700060E070E00E943208CE01DF91CF911F91B9
:100C80000F9108950F931F93CF93DF9382309105B7
:100C900010F482E090E0E0918F01F091900120E06B
:100CA00030E0A0E0B0E0309719F14081518102813D
:100CB000138148175907C8F08417950769F41097EE
:100CC00031F012960C93129713961C9327C0009341
:100CD0008F011093900122C02115310519F04217A0
:100CE000530718F49A01BD01EF01DF01F801DBCFD2
:100CF00021153105F9F0281B390B2430310580F41A
:100D00008A819B816115710521F0FB0193838283A8
:100D100004C09093900180938F01FE01329644C0ED
:100D2000FE01E20FF31F8193919322503109398321
:100D300028833AC020918D0130918E01232B41F4FC
:100D4000209102013091030130938E0120938D0197
:100D500020910001309101012115310541F42DB799
:100D60003EB74091040150910501241B350BE091E1
:100D70008D01F0918E01E217F307A0F42E1B3F0BBB
:100D80002817390778F0AC014E5F5F4F24173507FD
:100D900048F04E0F5F1F50938E0140938D01819359
:100DA000919302C0E0E0F0E0CF01DF91CF911F917D
:100DB0000F910895CF93DF93009709F481C0FC0150
:100DC000329713821282A0918F01B09190011097F7
:100DD00081F420813181820F931F20918D01309108
:100DE0008E012817390751F5F0938E01E0938D019C
:100DF00067C0ED0120E030E0CE17DF0740F44A8104
:100E00005B819E0141155105F1F0EA01F5CFD383D5
:100E1000C28340815181840F951FC817D90759F4A7
:100E200088819981840F951F0296918380838A819E
:100E30009B81938382832115310529F4F0939001DE
:100E4000E0938F013DC0E901FB83EA834991599109
:100E5000C40FD51FEC17FD0761F480819181840FC9
:100E6000951F0296E90199838883828193819B83F0
:100E70008A83E0E0F0E012968D919C9113970097A1
:100E800019F0FD01DC01F7CF8D919C9111979D0127
:100E90002E5F3F4F820F931F20918D0130918E0165
:100EA0002817390769F4309729F4109290011092AD
:100EB0008F0102C013821282B0938E01A0938D0124
:100EC000DF91CF910895A0E0B0E0E9E6F7E00C945F
:100ED0003D08EC01009721F4CB010E944206B4C00A
:100EE000FC01E60FF71F9C0122503109E217F307BE
:100EF00008F4A8C0D9010D911C9111970617170786
:100F0000B0F00530110508F49BC0C801049786179E
:100F1000970708F495C002501109061B170B01939F
:100F200011936D937C93CF010E94DA0689C05B0117
:100F3000A01AB10A4C01800E911EA0918F01B091B0
:100F40009001612C712CE12CF12C109709F446C012
:100F50008D919C911197A815B905B1F56C0142E0EE
:100F6000C40ED11CCA14DB0478F14C018A189B080A
:100F7000640142E0C40ED11C1296BC9012971396E5
:100F8000AC91B5E0CB16D10440F0B282A38391823C
:100F90008082D9016D937C9309C00E5F1F4F800F33
:100FA000911FF90191838083EB2DFA2FE114F10455
:100FB00031F0D7011396FC93EE93129741C0F09352
:100FC0009001E0938F013CC06816790608F43C015B
:100FD0007D0112960D90BC91A02DB7CF80918D010F
:100FE00090918E0188169906E1F466167706C8F48A
:100FF0008091000190910101009741F48DB79EB757
:101000004091040150910501841B950BE817F907E5
:10101000C8F4F0938E01E0938D01F9017183608330
:101020000FC0CB010E9442067C01009759F0A80135
:10103000BE010E942908CE010E94DA06C70104C041
:10104000CE0102C080E090E0CDB7DEB7EEE00C94B8
:101050005908FB01DC0102C001900D924150504043
:10106000D8F70895DC0101C06D9341505040E0F77E
:1010700008952F923F924F925F926F927F928F923C
:101080009F92AF92BF92CF92DF92EF92FF920F9317
:101090001F93CF93DF93CDB7DEB7CA1BDB0B0FB621
:1010A000F894DEBF0FBECDBF09942A8839884888DE
:1010B0005F846E847D848C849B84AA84B984C88474
:1010C000DF80EE80FD800C811B81AA81B981CE0F6B
:1010D000D11D0FB6F894DEBF0FBECDBFED01089550
:0410E000F894FFCFB2
:1010E400000091012000530076008B00B80001231A
:1010F400456789ABCDEFFEDCBA9876543210F0E147
:10110400D2C34E6F205352414D20617661696C61A8
:10111400626C652E0A004D534720746F6F206C6F0C
:101124006E672E0A006572726F72207878780A00F2
:1011340072657374617274207543210A000123453A
:101144006789ABCDEFFEDCBA9876543210F0E1D269
:10115400C39979825AA1EBD96EDCBC1B8FD6C162CC
:02116400CA00BF
:00000001FF
