S00D00005348415F312E73726563AB
S11300000C9434000C9451000C9451000C94510045
S11300100C9451000C9451000C9451000C94510018
S11300200C9451000C9451000C9451000C94510008
S11300300C9451000C9451000C9451000C945100F8
S11300400C9451000C9451000C949E040C94510097
S11300500C9451000C9451000C9451000C945100D8
S11300600C9451000C94510011241FBECFEFD8E022
S1130070DEBFCDBF11E0A0E0B1E0EAEBFEE002C0DC
S113008005900D92A233B107D9F721E0A2E3B1E0C4
S113009001C01D92A535B207E1F70E94D0030C946C
S11300A05B070C9400008F929F92AF92BF92EF92E5
S11300B0FF920F931F9349015A018E249F24A02677
S11300C0B126DC01CB0188219921AA21BB21BC01E5
S11300D0CD016E257F25802791271F910F91FF90D9
S11300E0EF90BF90AF909F908F9008958F929F92C2
S11300F0AF92BF92CF92DF92EF92FF920F931F9332
S113010049015A018E289F28A02AB12ADC01CB017B
S113011088219921AA21BB2159016A01AE20BF205F
S1130120C022D122BC01CD016A297B298C299D29B9
S11301301F910F91FF90EF90DF90CF90BF90AF9001
S11301409F908F900895AF92BF92CF92DF92EF92DB
S1130150FF920F931F9359016A01AE24BF24C02656
S1130160D1266A257B258C259D251F910F91FF9013
S1130170EF90DF90CF90BF90AF900895AF92BF9271
S1130180CF92DF92EF92FF920F931F9359016A016E
S1130190AE24BF24C026D1266A257B258C259D2527
S11301A01F910F91FF90EF90DF90CF90BF90AF9091
S11301B00895E1ECF0E08081806880838081806133
S11301C08083808188608083E2ECF0E080818F739B
S11301D0808380818F7C808380818660808310927D
S11301E0C50087E68093C40008959091C00095FFF0
S11301F0FCCF8093C60008954F925F926F927F92D6
S11302008F929F92AF92BF92EF92FF920F931F93A0
S1130210CF93DF937C01809142019091430164E08C
S113022070E034E0880F991F3A95E1F70E941105B8
S1130230EC01812C912C5401809142019091430155
S1130240A0914401B091450124E0880F991FAA1F91
S1130250BB1F2A95D1F788169906AA06BB0608F093
S113026052C008E110E0E0913201F0913301EE0D4B
S1130270FF1D8081882351F10E94F50040913201D5
S1130280509133016091340170913501F701E40F0D
S1130290F51F808190E09C01002E01C0220F0A947A
S11302A0EAF7488059806A807B80422A48825982D2
S11302B06A827B824F5F5F4F6F4F7F4F4093320163
S11302C05093330160933401709335010850110940
S11302D0083F8FEF180739F600E210E08881998112
S11302E0AA81BB81B7FF02C081E301C080E30E9401
S11302F0F5000150110991F79FEF891A990AA90A8B
S1130300B90A249699CFDF91CF911F910F91FF9055
S1130310EF90BF90AF909F908F907F906F905F9081
S11303204F9008952F923F924F925F926F927F92D7
S11303308F929F92AF92BF92CF92DF92EF92FF92F1
S11303400F931F93CF93DF93CDB7DEB76E970FB69E
S1130350F894DEBF0FBECDBF8F839B838091420193
S11303609091430164E070E020E5AC01249FC0015A
S1130370259F900D11240E9411059C8F8B8F5F8106
S113038059838B818A831B8A1C8A1D8A1E8A8091C9
S1130390420190914301A0914401B09145012B8900
S11303A03C894D895E89281739074A075B0708F09D
S11303B0B2C180901E0190901F01A0902001B090C6
S11303C02101209122013091230140912401509177
S11303D025012F83388749875A8780912601909178
S11303E02701A0912801B09129018B879C87AD87B3
S11303F0BE8720912A0130912B0140912C0150910C
S11304002D012F87388B498B5A8B80912E01909127
S11304102F01A0913001B09131018F8B988FA98F5A
S1130420BA8FAB8DBC8DD897BE8FAD8F212C312C5C
S11304301B821C821D821E828B819C81AD81BE81A8
S11304404097A105B10548F4E981FA81E20DF31D55
S113045080819181A281B3812AC0AD8DBE8D9C968D
S11304604D915D916D917C919F9758968D919D9141
S11304700D90BC91A02D84279527A627B727ED8D35
S1130480FE8D408151816281738184279527A6273F
S1130490B7273897408151816281738184279527DA
S11304A0A627B727880F991FAA1FBB1F811DED8D93
S11304B0FE8D80AF91AFA2AFB3AF6B817C818D8194
S11304C09E8124E130E040E050E00E94EF042901E5
S11304D03A01F901EE0FFF1FEA5FFE4F0190F08130
S11304E0E02DEF84F88809891A892B853C854D8590
S11304F05E856F81788589859A8509959201220F99
S1130500331F220F331FF901E25FFE4FAD8DBE8D05
S1130510D8960D911D912D913C91DB97408051808F
S113052062807380040D151D261D371D24013501BD
S11305305BE176946794579447945A95D1F7750183
S11305406401E5E0CC0CDD1CEE1CFF1CEA95D1F740
S11305504C285D286E287F28400E511E621E731E93
S1130560DC01CB01840D951DA61DB71D2F89388D87
S1130570498D5A8D820F931FA41FB51F0F811885B3
S113058029853A85F2E03695279517950795FA95CA
S1130590D1F74F80588469847A844EE1440C551C09
S11305A0661C771C4A95D1F7402A512A622A732A7D
S11305B02B813C814D815E812F5F3F4F4F4F5F4FB9
S11305C02B833C834D835E8334E0230E311C4D8D9D
S11305D05E8D4C5F5F4F5E8F4D8F8F829886A986AC
S11305E0BA862F85388949895A892F8B388F498F44
S11305F05A8F30E4231631E0330679F02B853C859D
S11306004D855E852F87388B498B5A8B4B865C864C
S11306106D867E864C015D010FCF00911E01109105
S11306201F012091200130912101800F911FA21FF1
S1130630B31F80931E0190931F01A0932001B093D8
S113064021018091220190912301A0912401B09174
S11306502501880E991EAA1EBB1E8092220190922B
S11306602301A0922401B09225018091260190914A
S11306702701A0912801B0912901480E591E6A1E34
S11306807B1E4092260150922701609228017092AD
S1130690290180912A0190912B01A0912C01B09104
S11306A02D012B853C854D855E85820F931FA41FEC
S11306B0B51F80932A0190932B01A0932C01B09332
S11306C02D0180912E0190912F01A0913001B091C4
S11306D031012F85388949895A89820F931FA41FB4
S11306E0B51F80932E0190932F01A0933001B093F6
S11306F031018B899C89AD89BE890196A11DB11DEB
S11307008B8B9C8BAD8BBE8BA981BA81A05CBF4FB8
S1130710BA83A9833CCE6E960FB6F894DEBF0FBEA3
S1130720CDBFDF91CF911F910F91FF90EF90DF909C
S1130730CF90BF90AF909F908F907F906F905F907D
S11307404F903F902F900895EF92FF920F931F9335
S1130750CF93DF93EC017C0184E1E80EF11C08E106
S113076010E088819981AA81BB81002E04C0B695CE
S1130770A795979587950A94D2F70E94F50008509B
S11307801109083F8FEF180761F72496EC16FD0650
S113079031F7DF91CF911F910F91FF90EF90089562
S11307A00E94D900789481E090E00E942D059093F6
S11307B04C0180934B0193E0892E912CA12CB12CF8
S11307C0C0904601D0904701E0904801F090490163
S11307D02601370183E0440C551C661C771C8A955E
S11307E0D1F7C301B20120EC31E040E050E00E94B7
S11307F0EF04DA01C9010196A11DB11D80934201E4
S113080090934301A0934401B0934501C701B601FD
S1130810A50194010E94EF04A5019401261B370B46
S1130820480B590B20933E0130933F014093400104
S113083050934101D301C201409236019093370194
S1130840A0933801B093390110923A0110923B0100
S113085010923C0110923D0180914B0190914C010A
S1130860F6013297E80FF91F20812332D9F5C80E1B
S1130870D91ED60111978C918132A1F51082E09195
S11308804B01F0914C018091460190914701E80F92
S1130890F91F3197108260914D0170914E01809142
S11308A04B0190914C010E94FC0060914F017091AA
S11308B0500180914D0190914E010E9492018091CE
S11308C0460190914701A0914801B09149010297D6
S11308D0A109B1098093460190934701A09348016F
S11308E0B093490120914B0130914C018091460114
S11308F090914701820F931FFC013297208123328C
S113090009F05ECF31968081843209F059CF8EE1AF
S113091091E00E94A40310924601109247011092A4
S113092048011092490161E070E081E090E00E948A
S1130930110590934C0180934B0142CF1F920F926B
S11309400FB60F9211242F933F934F935F936F939E
S11309507F938F939F93AF93BF93CF93DF93EF9343
S1130960FF93C6E4D1E0688179816E5F7F4F809107
S11309704B0190914C010E944E0690934C01809340
S11309804B014091C60028813981FC01E20FF31F1D
S113099040838091460190914701A0914801B09114
S11309A049010196A11DB11D809346019093470111
S11309B0A0934801B0934901FF91EF91DF91CF914A
S11309C0BF91AF919F918F917F916F915F914F9163
S11309D03F912F910F900FBE0F901F901895A1E299
S11309E01A2EAA1BBB1BFD010DC0AA1FBB1FEE1FA5
S11309F0FF1FA217B307E407F50720F0A21BB30BF0
S1130A00E40BF50B661F771F881F991F1A9469F76B
S1130A1060957095809590959B01AC01BD01CF01C7
S1130A2008950F931F93CF93DF93869F8001879F31
S1130A30100D969F100D1124C8010E942D05EC0184
S1130A40009729F0A80160E070E00E941D07CE0124
S1130A50DF91CF911F910F9108950F931F93CF931F
S1130A60DF938230910510F482E090E0E09153012D
S1130A70F091540120E030E0A0E0B0E0309719F1AB
S1130A80408151810281138148175907C8F08417A6
S1130A90950769F4109731F012960C9312971396F8
S1130AA01C9327C0009353011093540122C02115B5
S1130AB0310519F04217530718F49A01BD01EF01EB
S1130AC0DF01F801DBCF21153105F9F0281B390BC3
S1130AD02430310580F48A819B816115710521F0F0
S1130AE0FB019383828304C0909354018093530148
S1130AF0FE01329644C0FE01E20FF31F81939193ED
S1130B0022503109398328833AC020915101309110
S1130B105201232B41F420910201309103013093BF
S1130B2052012093510120910001309101012115BE
S1130B30310541F42DB73EB74091040150910501B0
S1130B40241B350BE0915101F0915201E217F30798
S1130B50A0F42E1B3F0B2817390778F0AC014E5F29
S1130B605F4F2417350748F04E0F5F1F5093520113
S1130B70409351018193919302C0E0E0F0E0CF01F2
S1130B80DF91CF911F910F910895CF93DF93009739
S1130B9009F481C0FC01329713821282A09153019F
S1130BA0B0915401109781F420813181820F931FF9
S1130BB020915101309152012817390751F5F093D2
S1130BC05201E093510167C0ED0120E030E0CE17FF
S1130BD0DF0740F44A815B819E0141155105F1F024
S1130BE0EA01F5CFD383C28340815181840F951FDD
S1130BF0C817D90759F488819981840F951F0296E3
S1130C00918380838A819B8193838283211531051B
S1130C1029F4F0935401E09353013DC0E901FB83AF
S1130C20EA8349915991C40FD51FEC17FD0761F46C
S1130C3080819181840F951F0296E90199838883AD
S1130C40828193819B838A83E0E0F0E012968D9108
S1130C509C911397009719F0FD01DC01F7CF8D915A
S1130C609C9111979D012E5F3F4F820F931F2091FE
S1130C705101309152012817390769F4309729F44A
S1130C80109254011092530102C013821282B09345
S1130C905201A0935101DF91CF910895A0E0B0E0FB
S1130CA0E4E5F6E00C942807EC01009721F4CB016D
S1130CB00E942D05B4C0FC01E60FF71F9C012250D1
S1130CC03109E217F30708F4A8C0D9010D911C916A
S1130CD0119706171707B0F00530110508F49BC0EB
S1130CE0C80104978617970708F495C002501109A4
S1130CF0061B170B019311936D937C93CF010E94F4
S1130D00C50589C05B01A01AB10A4C01800E911E71
S1130D10A0915301B0915401612C712CE12CF12C60
S1130D20109709F446C08D919C911197A815B905A7
S1130D30B1F56C0142E0C40ED11CCA14DB0478F195
S1130D404C018A189B08640142E0C40ED11C12961F
S1130D50BC9012971396AC91B5E0CB16D10440F039
S1130D60B282A38391828082D9016D937C9309C05E
S1130D700E5F1F4F800F911FF90191838083EB2D2C
S1130D80FA2FE114F10431F0D7011396FC93EE939A
S1130D90129741C0F0935401E09353013CC068168C
S1130DA0790608F43C017D0112960D90BC91A02DAA
S1130DB0B7CF809151019091520188169906E1F4C0
S1130DC066167706C8F4809100019091010100979E
S1130DD041F48DB79EB74091040150910501841BE5
S1130DE0950BE817F907C8F4F0935201E093510109
S1130DF0F901718360830FC0CB010E942D057C0132
S1130E00009759F0A801BE010E941407CE010E9468
S1130E10C505C70104C0CE0102C080E090E0CDB793
S1130E20DEB7EEE00C944407FB01DC0102C0019044
S1130E300D9241505040D8F70895DC0101C06D93E4
S1130E4041505040E0F708952F923F924F925F92A5
S1130E506F927F928F929F92AF92BF92CF92DF92C6
S1130E60EF92FF920F931F93CF93DF93CDB7DEB72B
S1130E70CA1BDB0B0FB6F894DEBF0FBECDBF0994BF
S1130E802A88398848885F846E847D848C849B8416
S1130E90AA84B984C884DF80EE80FD800C811B8124
S1130EA0AA81B981CE0FD11D0FB6F894DEBF0FBE53
S10D0EB0CDBFED010895F894FFCFC3
S1130EBA0000550120005300BE007600A300997972
S1130ECA825AA1EBD96EDCBC1B8FD6C162CA01233C
S1130EDA456789ABCDEFFEDCBA9876543210F0E15F
S1050EEAD2C36D
S9030000FC
